{
  "address": "0x686D32DBCa008441a665871fF8E5cb82dd3517CF",
  "abi": [
    {
      "inputs": [
        {
          "internalType": "address",
          "name": "exampleExternalContractAddress",
          "type": "address"
        }
      ],
      "stateMutability": "nonpayable",
      "type": "constructor"
    },
    {
      "anonymous": false,
      "inputs": [
        {
          "indexed": true,
          "internalType": "address",
          "name": "sender",
          "type": "address"
        },
        {
          "indexed": false,
          "internalType": "uint256",
          "name": "amount",
          "type": "uint256"
        }
      ],
      "name": "Stake",
      "type": "event"
    },
    {
      "inputs": [
        {
          "internalType": "address",
          "name": "",
          "type": "address"
        }
      ],
      "name": "balances",
      "outputs": [
        {
          "internalType": "uint256",
          "name": "",
          "type": "uint256"
        }
      ],
      "stateMutability": "view",
      "type": "function"
    },
    {
      "inputs": [],
      "name": "deadline",
      "outputs": [
        {
          "internalType": "uint256",
          "name": "",
          "type": "uint256"
        }
      ],
      "stateMutability": "view",
      "type": "function"
    },
    {
      "inputs": [],
      "name": "exampleExternalContract",
      "outputs": [
        {
          "internalType": "contract ExampleExternalContract",
          "name": "",
          "type": "address"
        }
      ],
      "stateMutability": "view",
      "type": "function"
    },
    {
      "inputs": [],
      "name": "execute",
      "outputs": [],
      "stateMutability": "nonpayable",
      "type": "function"
    },
    {
      "inputs": [],
      "name": "hasExecuted",
      "outputs": [
        {
          "internalType": "bool",
          "name": "",
          "type": "bool"
        }
      ],
      "stateMutability": "view",
      "type": "function"
    },
    {
      "inputs": [],
      "name": "openForWithdraw",
      "outputs": [
        {
          "internalType": "bool",
          "name": "",
          "type": "bool"
        }
      ],
      "stateMutability": "view",
      "type": "function"
    },
    {
      "inputs": [],
      "name": "stake",
      "outputs": [],
      "stateMutability": "payable",
      "type": "function"
    },
    {
      "inputs": [],
      "name": "threshold",
      "outputs": [
        {
          "internalType": "uint256",
          "name": "",
          "type": "uint256"
        }
      ],
      "stateMutability": "view",
      "type": "function"
    },
    {
      "inputs": [],
      "name": "timeLeft",
      "outputs": [
        {
          "internalType": "uint256",
          "name": "",
          "type": "uint256"
        }
      ],
      "stateMutability": "view",
      "type": "function"
    },
    {
      "inputs": [],
      "name": "withdraw",
      "outputs": [],
      "stateMutability": "nonpayable",
      "type": "function"
    },
    {
      "stateMutability": "payable",
      "type": "receive"
    }
  ],
  "transactionHash": "0x600329beace1c5f291009d6b29a6b1b6490c66920a8b62de9e0f879d0012ede2",
  "args": [
    "0x09Cd6A1efa7E647fb6626E338a9B649B800649eA"
  ],
  "numDeployments": 1,
  "solcInputHash": "cd9e9f424c7d5fd1e3f3e59005a81b3e",
  "bytecode": "0x608060405234801561001057600080fd5b5060405161058a38038061058a83398101604081905261002f91610060565b600080546001600160a01b0319166001600160a01b038316179055610057426203f480610090565b600255506100b7565b60006020828403121561007257600080fd5b81516001600160a01b038116811461008957600080fd5b9392505050565b808201808211156100b157634e487b7160e01b600052601160045260246000fd5b92915050565b6104c4806100c66000396000f3fe6080604052600436106100955760003560e01c806342cde4e81161005957806342cde4e814610131578063614619541461014d5780639876a643146101625780639f75f2271461018c578063d005fdff146101c457600080fd5b80631300a6d1146100a957806327e235e3146100d157806329dcb0cf146100fe5780633a4b66f1146101145780633ccfd60b1461011c57600080fd5b366100a4576100a26101e3565b005b600080fd5b3480156100b557600080fd5b506100be610257565b6040519081526020015b60405180910390f35b3480156100dd57600080fd5b506100be6100ec36600461041c565b60016020526000908152604090205481565b34801561010a57600080fd5b506100be60025481565b6100a26101e3565b34801561012857600080fd5b506100a261027b565b34801561013d57600080fd5b506100be670de0b6b3a764000081565b34801561015957600080fd5b506100a26102c7565b34801561016e57600080fd5b5060035461017c9060ff1681565b60405190151581526020016100c8565b34801561019857600080fd5b506000546101ac906001600160a01b031681565b6040516001600160a01b0390911681526020016100c8565b3480156101d057600080fd5b5060035461017c90610100900460ff1681565b3360009081526001602052604081208054349290610202908490610462565b909155505033600090815260016020526040902054610220906103b7565b60405134815233907febedb8b3c678666e7f36970bc8f57abf6d8fa2e828c0da91ea5b75bf68ed101a9060200160405180910390a2565b600060025442106102685750600090565b42600254610276919061047b565b905090565b336000908152600160205260408120805491905580156102c457604051339082156108fc029083906000818181858888f193505050501580156102c2573d6000803e3d6000fd5b505b50565b600354610100900460ff16156103125760405162461bcd60e51b815260206004820152600c60248201526b616c726561647920646f6e6560a01b604482015260640160405180910390fd5b6003805461ff0019166101001790556002544211801561033a5750670de0b6b3a76400004710155b156103a85760008054906101000a90046001600160a01b03166001600160a01b031663522e1177476040518263ffffffff1660e01b81526004016000604051808303818588803b15801561038d57600080fd5b505af11580156103a1573d6000803e3d6000fd5b5050505050565b6003805460ff19166001179055565b6102c4816040516024016103cd91815260200190565b60408051601f198184030181529190526020810180516001600160e01b031663f82c50f160e01b1790526102c48160006a636f6e736f6c652e6c6f679050600080835160208501845afa505050565b60006020828403121561042e57600080fd5b81356001600160a01b038116811461044557600080fd5b9392505050565b634e487b7160e01b600052601160045260246000fd5b808201808211156104755761047561044c565b92915050565b818103818111156104755761047561044c56fea2646970667358221220673a8360b957c200b621457a5625d9ba5337e772d97b719bc6acd825be87588f64736f6c63430008140033",
  "devdoc": {
    "kind": "dev",
    "methods": {},
    "version": 1
  },
  "userdoc": {
    "kind": "user",
    "methods": {},
    "version": 1
  },
  "storageLayout": {
    "storage": [
      {
        "astId": 19,
        "contract": "contracts/Staker.sol:Staker",
        "label": "exampleExternalContract",
        "offset": 0,
        "slot": "0",
        "type": "t_contract(ExampleExternalContract)12"
      },
      {
        "astId": 23,
        "contract": "contracts/Staker.sol:Staker",
        "label": "balances",
        "offset": 0,
        "slot": "1",
        "type": "t_mapping(t_address,t_uint256)"
      },
      {
        "astId": 34,
        "contract": "contracts/Staker.sol:Staker",
        "label": "deadline",
        "offset": 0,
        "slot": "2",
        "type": "t_uint256"
      },
      {
        "astId": 83,
        "contract": "contracts/Staker.sol:Staker",
        "label": "openForWithdraw",
        "offset": 0,
        "slot": "3",
        "type": "t_bool"
      },
      {
        "astId": 85,
        "contract": "contracts/Staker.sol:Staker",
        "label": "hasExecuted",
        "offset": 1,
        "slot": "3",
        "type": "t_bool"
      }
    ],
    "types": {
      "t_address": {
        "encoding": "inplace",
        "label": "address",
        "numberOfBytes": "20"
      },
      "t_bool": {
        "encoding": "inplace",
        "label": "bool",
        "numberOfBytes": "1"
      },
      "t_contract(ExampleExternalContract)12": {
        "encoding": "inplace",
        "label": "contract ExampleExternalContract",
        "numberOfBytes": "20"
      },
      "t_mapping(t_address,t_uint256)": {
        "encoding": "mapping",
        "key": "t_address",
        "label": "mapping(address => uint256)",
        "numberOfBytes": "32",
        "value": "t_uint256"
      },
      "t_uint256": {
        "encoding": "inplace",
        "label": "uint256",
        "numberOfBytes": "32"
      }
    }
  }
}